:020000040800F2
:100000002005002001010008CB1600088516000815
:10001000C916000835020008351800080000000065
:10002000000000000000000000000000CF160008E3
:100030004502000800000000CD160008D116000897
:100040001B0100081B0100081B0100081B01000820
:100050001B0100081B0100081B0100081B01000810
:100060001B0100081B0100081B01000839020008E1
:100070001B0100081B0100081B0100081B010008F0
:100080001B0100081B0100086D0100081B0100088E
:100090001B0100081B0100081B0100081B010008D0
:1000A0001B0100081B0100081B0100081B010008C0
:1000B0001B0100081B0100081B0100081B010008B0
:1000C0001B0100081B0100081B0100081B010008A0
:1000D0001B0100081B0100081B0100081B01000890
:1000E0001B0100081B0100081B010008DFF80CD0F1
:1000F00000F02AF800480047751800082005002085
:100100000648804706480047FEE7FEE7FEE7FEE7B1
:10011000FEE7FEE7FEE7FEE7FEE7FEE7351700082D
:10012000ED000008D2B201E000F8012B491EFBD21D
:1001300070470022F6E710B513460A4604461946F2
:10014000FFF7F0FF204610BD064C074D06E0E068C3
:1001500040F0010394E8070098471034AC42F6D30E
:10016000FFF7C8FF7819000898190008014800F047
:10017000EFB800001400002070B5044600688168E4
:10018000C943C9071CD1816821F00101816000F0D9
:100190001FFD05460FE000BF00F01AFD401B0228BE
:1001A00009D9A06A40F01000A062E06A40F00100A6
:1001B000E062012070BD20688068C043C007EBD0BA
:1001C000002070BDF8B500260446009600688168DE
:1001D000C943C90728D0816841F0010181601348F3
:1001E00013490068B0FBF1F000E0401E00900028C9
:1001F000FBD100F0EDFC054611E000BF00F0E8FC8B
:10020000401B02280BD9A06A40F01000A062E06AEF
:1002100040F00100E06284F824600120F8BD20680D
:100220008068C043C007E9D10020F8BD100000205D
:1002300040420F00FEE70000014800F0EFBA000066
:10024000D80000207047704770470000F8B50024C0
:10025000009490F824202546012A12D0012280F82B
:1002600024204A681F23072A0DD20668776B521E86
:1002700002EB820293409F430B6893401F437763D6
:1002800019E00220F8BD06680D2A0AD2376BD21F8A
:1002900002EB820293409F430B6893401F433763F6
:1002A00009E0F76A0D3A02EB820293409F430B6824
:1002B00093401F43F7620A68072306680A2A0AD395
:1002C000F7680A3A02EB420293409F438B689340DF
:1002D0001F43F76008E0376902EB420293409F43F7
:1002E0008B6893401F4337610A68102A01D0112A96
:1002F00020D1124B02689A4217D193681B0219D47D
:10030000936843F4000393600968102912D10C49E3
:100310000C4A0968B1FBF2F101EB8101490000E0F0
:10032000491E00910029FBD104E0816A41F02001BF
:100330008162012480F824502046F8BD0024014049
:100340001000002040420F0070470068C06C7047EA
:1003500010B5044600684168890626D501688907FA
:1003600023D5A16AC90603D4A16A41F40071A16230
:100370008168C1F34241072910D1217B71B94168DD
:1003800021F020014160A06A20F48070A062A06A80
:10039000C00403D4A06A40F00100A0622046FFF729
:1003A000D3FF21686FF012000860206841680906D9
:1003B0002ED5016849072BD5A16AC90603D4A16AC5
:1003C00041F40051A1628168C1F30231072909D0CB
:1003D0004168490515D48168C1F34241072910D10C
:1003E000217B71B9416821F080014160A06A20F44D
:1003F0008050A062A06AC00503D4A06A40F001004A
:10040000A0622046FFF720FF21686FF00C00086013
:100410002068416849060DD50068C0070AD0A06A67
:1004200040F48030A062204600F094F821686FF01C
:100430000100086010BD00002DE9F0414FF00007F9
:1004400004003D467ED0A06A002628B9E66284F802
:100450002460204600F080F82046FFF78DFEA16A58
:10046000C90600D420B1A06A40F01000A06269E083
:10047000A16A21F4885141F00201A1626268E16938
:10048000237B0A4347EA43010A43A1684FF480777C
:10049000B94209D0012907D05FF0000194F814C0D7
:1004A000BCF1010F02D00AE03946F7E7F3B1A36AC5
:1004B00043F02003A362E36A43F00103E36223688D
:1004C000D3F804C02CF4694C4CEA010CC3F804C006
:1004D00021688B68DFF870C003EA0C0313438B605C
:1004E000A168B9420BD0012909D00CE0DFF85CC04B
:1004F000A3690CEB43330B4343F40061DFE7218A2C
:100500000D05A5F580152168CB6A23F470032B43F4
:10051000CB62216889680E4B1940914208D1E6628E
:10052000A16A21F0020141F00101A162BDE8F08160
:10053000A06A20F0020040F01000A062E06A40F0E3
:100540000100E0620120F1E7FDF7E1FF00E0FFFFBD
:10055000FE0E1FFF7047000070B586B000250646EE
:10056000009501950295039500681E49884236D191
:100570001D49886940F400708861886900F4007042
:100580000490886940F0040088618869694600F039
:10059000040004900120009003200190134800F013
:1005A00027FA144C1248C4E900058020C4E902501F
:1005B00080002061800060612020C4E9060520469B
:1005C00000F0D6F908B1FFF73EFE34620022114672
:1005D0001220666200F050FC122000F03FFC06B0D2
:1005E00070BD0000002401400010024000080140DE
:1005F00008000240D80000202DE9F84300260D46EF
:100600000446009600F0E4FA804620688168C90537
:1006100008D5A06A40F02000A06284F82460012080
:10062000BDE8F8834168C90503D4C06A10F4700FAF
:1006300026D0022000F052FC38490968B1FBF0F7DF
:100640002068036936490B424FEA61014FEAA11263
:100650001BD1C3684FEA611C13EA0C0F15D1036963
:100660000B4221D1C06810421ED114201FE0681C2B
:1006700006D045B300F0ACFAA0EB0800A84222D89F
:10068000206800688007F2D52AE003690B4202D196
:10069000C168114206D0026922490A4206D1C068E7
:1006A000084203D1542002E0292000E0FC20474307
:1006B000009813E0681C0ED02DB100F089FAA0EB71
:1006C0000800A84207D9A06A40F00400A06284F89C
:1006D00024600320A4E70098401C0090B842E9D3AE
:1006E00021686FF012000860A06A40F40070A062F8
:1006F00020688068C0F3424007280CD1207B50B9A5
:10070000A06A20F48070A062A06AC00403D4A06A2A
:1007100040F00100A062002082E7000010000020ED
:10072000244992244992240070B5044690F824008C
:1007300001280DD0012084F824002046FFF742FD57
:1007400002004FF0000005D084F82400104670BD70
:10075000022070BDA16A40F20123994341F48071E7
:10076000A1621F4D23681F49AB4218D10E6816F4D1
:10077000702F14D0A66A46F48016A6620E6876051D
:1007800005D5A66A26F4005646F48056A662A66AE7
:10079000F6040AD5E66A26F00606E66206E0A66AD0
:1007A00026F48016A6625E68E9E7E06284F8240019
:1007B0006FF00200186020688368C3F34243072B80
:1007C00005D1A84208D1096811F4702F04D08168BE
:1007D00041F480118160B9E7816841F4A001F9E733
:1007E000002801400424014010B5044690F824007C
:1007F000012807D0012084F824002046FFF7BCFC24
:1008000010B107E0022010BDA16A21F4885141F027
:100810000101A162002184F8241010BD2DE9F05FD0
:10082000C16B0C6801680B68D0F840C0042202FA62
:100830000CF2494DDFF824A1494E4A4FDFF828B1A8
:10084000DFF828E122422CD05A072AD50A689206FE
:1008500003D40A6822F004020A600168A94201D1A7
:10086000042219E0514501D1402215E0B14202D1E4
:100870004FF4806210E0B94202D14FF480420BE0A5
:10088000594502D14FF4802206E0714502D14FF460
:10089000800201E04FF080622F4908394A60C16A46
:1008A0003BE04FF0020808FA0CF818EA040F4FF08A
:1008B00000094FF0010235D05FEA837832D50B682A
:1008C0009B0605D40B6823F00A030B6080F82120F7
:1008D0000168A94201D1022219E0514501D120222B
:1008E00015E0B14202D14FF4007210E0B94202D1DA
:1008F0004FF400520BE0594502D14FF4003206E0AC
:10090000714502D14FF4001201E04FF0007212491C
:1009100008394A6080F82090816A00291AD0BDE821
:10092000F05F0847082505FA0CF5254212D01B0791
:1009300010D50B6823F00E030B6090F84010C36BCA
:1009400002FA01F15960826380F8212080F820903A
:10095000016BE2E7BDE8F09F080002401C00024086
:100960003000024044000240580002406C00024047
:1009700030B528B308C8134914221944B1FBF2F169
:100980008900C16310498163022141771A6843F6E7
:10099000F0718A43D0E900142143D0E902452C4389
:1009A000214304692143446921438469214311435C
:1009B000196000214163012242770177084630BD6A
:1009C000012030BDF8FFFDBF0000024070B50446B5
:1009D00000F0FEF80546601C02D00448007804448C
:1009E00000F0F6F8401BA042FAD370BD04000020CE
:1009F0002DE9F84FDFF8B891002409F1040A0AF153
:100A0000040B23460F270BF1040EC9E00125A54076
:100A10002A40AA427DD1674ED1F804C0ACEB06084B
:100A2000B44532D014DCBCF1030F3AD009DCBCF180
:100A3000000F2AD0BCF1010F1CD0BCF1020F31D144
:100A40001DE0BCF1110F17D0BCF1120F2AD119E033
:100A5000B8F5881F19D006DCB8F5803F15D0B8F579
:100A6000801F1FD111E0B8F5001F0ED0B8F5041F8C
:100A700018D10AE0CB6815E0CB681B1D12E0CB68EB
:100A800008330FE0CB680C330CE08B682BB1012BE3
:100A90004FF0080303D0456104E0042302E0056140
:100AA00000E00023FF2A01D8064601E000F1040619
:100AB0004FEA840501D9A5F12005D6F8008007FA90
:100AC00005FC28EA0C0803FA05F548EA0508C6F80B
:100AD00000804D68ED0062D5374DAE6946F00106E5
:100AE000AE61AD6924F0030605F001050095334DB4
:100AF00006EB050CDCF80850A607360F07FA06F8D7
:100B000025EA0805DFF8B880404503D14FF000081A
:100B100017E044E0DFF8AC80404502D14FF0010817
:100B20000FE0DFF8A480404502D14FF0020808E052
:100B3000DFF89880404502D14FF0030801E04FF004
:100B4000040808FA06F848EA0508CCF808804D6859
:100B5000D9F80060ED034D4601D5164300E09643F9
:100B60002E604D68DAF80060AD03554601D5164396
:100B700000E096432E604D68DBF80060ED025D46B4
:100B800001D5164300E096432E604D68DEF8006004
:100B9000AD02754601D5164300E096432E60641CF5
:100BA0000D682A46E5407FF431AFBDE8F88F0000BC
:100BB000000401400000111000100240000001403C
:100BC00000080140000C01400010014000140140E9
:100BD00001488068704700000400002070B50400E0
:100BE0001BD094F83D00002520B984F83C502046E5
:100BF00000F0AEF8242084F83D002068016821F060
:100C00000101016000F0DAFA4D4A6168914201D8B1
:100C10004C4900E04C49884201D2012070BD4B494B
:100C20002368B0FBF1F15E6826F03F060E435E607C
:100C30006368934206D94FF4967359434FF47A731D
:100C4000B1FBF3F12368491C1E6A26F03F063143CD
:100C500019626168914210D84900401EB0FBF1F260
:100C6000521CC2F30B02042A01D2042022E0B0FB82
:100C7000F1F0401CC0F30B001CE0A368F3B301EBE0
:100C8000C10202EB0116421EB2FBF6F2521C42F404
:100C90008042120549D093B301EBC10202EB01116E
:100CA000401EB0FBF1F0401CC0F30B0040F480404C
:100CB00040F400402168CA694CF6FF739A43104320
:100CC000C861D4E90701084321680A6822F0C0021C
:100CD00010430860D4E9030101432068826848F2A8
:100CE000FF339A4311438160D4E905010843216829
:100CF000CA6822F0FF021043C86001E00EE016E06F
:100D00002068016841F0010101602564202084F819
:100D10003D00256384F83E50002070BD01EB410684
:100D2000421EB2FBF6F2521CB3E70120C2E701EB10
:100D30004101401EB0FBF1F0401CC0F30B00B7E7CF
:100D4000A086010080841E0000093D0040420F0083
:100D500010B586B0002100910191029103910068C5
:100D60000F4988421AD10F4CA06940F00800A061D9
:100D7000A069694600F008000490C020009012208D
:100D80000190032003900848FFF732FEE06940F429
:100D90000010E061E06900F40010049006B010BD9E
:100DA0000054004000100240000C014002488168DD
:100DB000027811448160704704000020074810B594
:100DC000016841F010010160032000F075F8002077
:100DD00000F006F800F024F8002010BD00200240CA
:100DE00070B50D4D04464FF47A712878B1FBF0F0E0
:100DF0000A490968B1FBF0F000F0C6FB48B9102CB5
:100E000007D200222146501E00F036F800206C6008
:100E100070BD012070BD0000040000201000002003
:100E20000C4808B5816941F001018161816901F0D7
:100E300001010091C16941F08051C161C06900F0B8
:100E4000805000900448416821F0E06141F0007159
:100E5000416008BD0010024000000140002809DB8D
:100E600000F01F02012191404009800000F1E020C4
:100E7000C0F8001170470000F0B40E4B1B680C4620
:100E8000C3F30223C3F10705042D00D90425191D5E
:100E9000072901D2002300E0DB1E012606FA05F136
:100EA000491E214099409E40761E16403143F0BCB9
:100EB00000F0C1BC0CED00E0064900F00702086834
:100EC0004FF6FF03184040EA0220034A104308602F
:100ED000704700000CED00E00000FA0510B529A4F1
:100EE00001461DCC86B08DE81D002AA02A4C006862
:100EF00004900020012923D002293AD010291DD1C5
:100F000061682268D20119D5C1F38342C9031DF873
:100F1000020009D5616804AAC1F34041515C1F4A2F
:100F2000B2FBF1F1484301E01D49484361684902C1
:100F300004D440005FF00301B0FBF1F006B010BD37
:100F4000226AC2F30121012903D1920701D5C80306
:100F5000F4E7022905D1626A920702D549F64040BA
:100F6000ECE70329EAD121688903E7D54FF2244051
:100F7000E4E700F033F96168C1F38131491C4900AD
:100F8000DAE7000002030405060708090A0B0C0D46
:100F90000E0F1010010200000010024000127A0033
:100FA00000093D002DE9F84305460078354CC0079F
:100FB00054D0E0690026C00008D4E06940F08050B9
:100FC000E061E069012600F0805000902E48016841
:100FD000C90512D40168804641F480710160FFF7B1
:100FE000F7FD074605E000BFFFF7F2FDC01B6428D0
:100FF00023D8D8F80000C005F6D5206A10F4407058
:1010000021D0A98801F4407181421CD0206A1F4977
:10101000012220F440700A6000220A602062C007AA
:1010200011D0FFF7D5FD074641F2883808E000BF30
:10103000FFF7CEFDC11B414502D90320BDE8F8836F
:10104000206A8007F4D5206A696820F4407008435C
:1010500020621EB1E06920F08050E06128788007AE
:1010600005D56068A96820F440400843606028788E
:10107000C00605D56068E96820F480000843606018
:101080000020DBE7001002400070004040044242B4
:101090002DE9F0470F46050061D0434E306800F05F
:1010A0000700B84209D2306820F0070038433060AA
:1010B000306800F00700B84251D128683B4C8107E6
:1010C00012D5400703D5606840F4E060606028787E
:1010D000000703D5606840F4605060606068A968EC
:1010E00020F0F000084360602878C00728D06868C6
:1010F000012810D02168022810D0890700292EDA93
:10110000616821F0030101436160FFF761FD8046E2
:1011100041F288390DE021688903EFE78901EDE7A5
:10112000FFF756FDA0EB0801494502D90320BDE8B1
:10113000F0876068696800F00C00B0EB810FEFD1B8
:10114000306800F00700B8420BD9306820F0070083
:1011500038433060306800F00700B84201D0012009
:10116000E5E72878400705D56068E96820F4E06085
:10117000084360602878000706D56068296920F474
:10118000605040EAC100606000F038F86168084AC9
:10119000C1F30311515CC840064908600648006865
:1011A000FFF71EFE0020C2E70020024000100240B0
:1011B00060190008100000200800002004480549BC
:1011C00000684968044AC1F30221515CC840704775
:1011D0001000002000100240701900080448054962
:1011E00000684968044AC1F3C221515CC840704795
:1011F00010000020001002407019000812A185B0F4
:101200000FC98DE80F0014A0144A006804905168BB
:10121000134801F00C03042B10D0082B0ED1C1F39E
:101220008343C9031DF803000AD5516804AAC1F31A
:101230004041515C0A4A5043B0FBF1F005B07047A1
:1012400008494843FAE700000203040506070809B5
:101250000A0B0C0D0E0F10100102000000100240CE
:1012600000127A0000093D002DE9F84F040070D00B
:101270002078C04DC00749D06868C0F381000128BC
:1012800007D06868C0F38100022809D16868C003EC
:1012900006D52868800339D560680028E7D035E096
:1012A0006068B0F5803F0BD010B1B0F5A02F11D021
:1012B000286820F480302860286820F4802002E02C
:1012C000286840F480302860606890B1FFF780FCA7
:1012D00006460AE0286840F480202860F0E700BF56
:1012E000FFF776FC801B642873D828688003F7D545
:1012F0000CE0FFF76DFC064605E000BFFFF768FC59
:10130000801B6428F0D828688003F7D420789A4E90
:1013100080074FF001094FF0000839D5686810F0D8
:101320000C0F07D06868C0F38100022809D16868F3
:10133000C00306D42868800714D52069012808D185
:1013400010E02069B0B1C6F80090FFF741FC0746F5
:1013500005E00AE1FFF73CFCC01B0228C4D828685E
:101360008007F7D52868616920F0F80040EAC100DD
:1013700028600DE0C6F80080FFF72AFC074604E06D
:10138000FFF726FCC01B022823D828688007F7D463
:10139000207800072CD57948A169D9B1C0F8009010
:1013A000FFF716FC074604E0FFF712FCC01B0228FB
:1013B0000FD8686A8007F7D571484FF4FA51006872
:1013C000B0FBF1F0009000BF0098411E0091FAD2EE
:1013D0000EE080E0C0F80080FFF7FAFB074604E06B
:1013E000FFF7F6FBC01B022875D8686A8007F7D4A0
:1013F0002078400760D5E8690027C00008D4E86974
:1014000040F08050E861E869012700F080500090CA
:101410005C480168C90513D40168834641F48071B2
:101420000160FFF7D5FB824606E000BFFFF7D0FB67
:10143000A0EB0A0064284ED8DBF80000C005F5D503
:10144000E06801280AD008B1052813D0286A20F0E6
:1014500001002862286A20F0040002E0286A40F0B7
:1014600001002862E06841F2883B98B1FFF7B0FBC9
:1014700082460BE0286A40F004002862EEE700BFD5
:10148000FFF7A6FBA0EB0A0159455AD8286A800746
:10149000F6D50CE0FFF79CFB824605E0FFF798FBD2
:1014A000A0EB0A0159454CD8286A8007F6D41FB131
:1014B000E86920F08050E861E06988B36968C1F3A9
:1014C0008101022944D00228C6F8608004D0FFF7C9
:1014D0007FFB044638E034E0FFF77AFB074604E080
:1014E000FFF776FBC01B02282BD828688001F7D4B1
:1014F000206AB0F5803F05D16868A16820F400300B
:1015000008436860D4E908010843696821F474114C
:1015100008436860C6F86090FFF75AFB044606E08F
:1015200025E000BFFFF754FB001B022809D82868FC
:101530008001F7D51BE000BFFFF74AFB001B022824
:1015400002D90320BDE8F88F28688001F4D40EE0AA
:101550000128F7D06868226A00F48031914204D1F2
:10156000616A00F47010884201D00120EAE700208F
:10157000E8E70000001002400000424280044242BE
:10158000100000200070004010B5401EB0F1807FB8
:1015900001D3012010BD4FF0E02460610F216017DE
:1015A00000F049F90020A06107202061002010BD53
:1015B00070B5040004D094F83900002510B106E09D
:1015C000012070BD84F83850204600F023F8242014
:1015D00084F839002068C16821F40051C1602046B8
:1015E00000F0CCF82068016921F490410161206885
:1015F000416921F02A0141612068C16841F400512C
:10160000C160E563202084F8390084F83A000020A6
:1016100070BD000030B585B00024009401940294A0
:10162000039400681449884224D11448816941F424
:1016300080418161816901F480410491816941F0B7
:101640000401816180690E4D00F0040004904FF4A4
:101650000070009002200190032003906946284604
:10166000FFF7C6F92815CDE900046946284602941B
:10167000FFF7BEF905B030BD003801400010024050
:1016800000080140FEE700003EB500240D4800942C
:10169000019402940A498460016001250573047570
:1016A00005614FF460214460C161FEF7C5FECDE9DC
:1016B0000045694603480294FEF7C8FD3EBD0000A0
:1016C0000024014014000020FEE770477047704777
:1016D000FFF76CBB30B593B028216846FEF729FDB3
:1016E00014210AA8FEF725FD002401200F94109470
:1016F0001194010412948DE8130004904FF4E0104B
:10170000CDE90810022507956846FFF7ADFD0F20CB
:10171000CDE90A056802CDE90C4002210AA80E9421
:10172000FFF7B6FCA80311900F950FA8FFF73AFC3E
:1017300013B030BD0D48016841F0010101604168FE
:101740000B4A1140416001680A4A1140016001687A
:1017500021F480210160416821F4FE0141604FF4D1
:101760001F0181600449C0030860704700100240F7
:101770000000FFF8FFFFF6FE08ED00E02DE9F04164
:10178000044600680169E26821F440511143016197
:101790002169A0680843616908432168CA6841F269
:1017A0000C639A430243CA6020684169A26921F42C
:1017B0004071114341611E492068642532268842E8
:1017C00002D1FFF70BFD01E0FFF7F8FC00EBC001D1
:1017D00001EB001160686FF018078000B1FBF0F2B8
:1017E000B2FBF5F2B1FBF0F37A4303EB8202B1FBFB
:1017F000F0F306EB0212B2FBF5F2B3FBF5F302F0E5
:10180000F00202EB0312B1FBF0F3B1FBF0F0B0FB1E
:10181000F5F0784303EB800006EB0010B0FBF5F029
:10182000216800F00F0010448860BDE8F0810000DE
:1018300000380140FEE70907090E002804DB00F12B
:10184000E02080F80014704700F00F0000F1E02065
:1018500080F8141D704702E008C8121F08C1002A52
:10186000FAD170477047002001E001C1121F002A21
:10187000FBD1704708B5FFF7A1FAFFF72BFF3248FD
:10188000816941F020018161816901F020010091AD
:10189000816941F004018161816901F004010091D5
:1018A000816941F008018161816901F008010091BD
:1018B000416941F0010141614069002200F00100ED
:1018C000009011460B20FFF7D7FA0B20FFF7C6FA5E
:1018D000FFF7DAFE1E481D49002401601D49C0E9DA
:1018E00001144FF48041C0E9034144618461C46143
:1018F0000462FFF773F916481749543001604FF43A
:101900001651C0E901140C21C460C0E9044184618E
:10191000C461FFF74DFE114D4FF4FA740C48303896
:10192000FEF702FF0A4864213038FEF765FE0848DA
:101930003038FEF70AFD286005483038FEF754FFBE
:101940002046FFF743F8E9E700100240005400404A
:1019500044000020A0860100003801400000002063
:10196000000000000000000001020304060708094F
:101970000000000001020304981900080000002084
:101980001400000056180008AC19000814000020CC
:101990000C050000661800080000000001000000AF
:0C19A00010000000000000000024F40013
:04000005080000ED02
:00000001FF
